:030000000209ED05
:0C09ED00787FE4F6D8FD758174020A34AE
:100F6900C2A6D2A5D2A700000000E580339201C233
:030F7900A7A2012B
:010F7C002252
:100EE800120F6940FBC2A6C2A5C2A700008F8000EE
:0C0EF800000000D2A700000000C2A722EA
:100F2000120F6940FBD2A6C2A5C2A78F80000000A5
:0A0F300000D2A700000000C2A722B3
:100D1700D2B27F34120EE87F057E00120EA97F3013
:100D2700120EE87F057E00120EA97F0C120EE87FD7
:100D3700057E00120EA97F01120EE87F057E0002D4
:020D47000EA9F3
:100B6D00EDD39400748094805002E4FDEDD3940392
:100B7D007480948040027D0353070FED14600F14B1
:100B8D00601114601324037012430780800D430716
:100B9D009080084307888003430798120EE8120BD4
:100BAD00BEFF600C120F20740129F9E43AFA80EEB1
:010BBD002215
:100ECA00D3EF9400EE940040147D6E7C00ED1D700B
:0D0EDA00011CED4C70F7EF1F70E61E80E369
:010EE70022E8
:0A0EA900EF1FAC0670011E4C60162E
:100EB300E4F50BC3E50B94FA7480948050E80000CA
:060EC3000000050B80EDAC
:010EC9002206
:03000600DFFE22F8
:10073300504F5354202F646576696365732F3130AE
:1007430035313538303332302F64617461706F69FD
:100753006E74733F747970653D3320485454502F41
:10076300312E31000D0A004150492D4B45593A3184
:100773005A585179664B6E714C316271455630440B
:10078300304A4A71624C37706D633D00486F737431
:100793003A6170692E6865636C6F7564732E636F5D
:1007A3006D00436F6E74656E742D4C656E6774686F
:1007B3003A323400007B2274656D70223A002C2299
:1007C30068756D69223A007D003230323032313340
:1007D30033373300BCBEBAEAF6CE00CEC2B6C8C9C0
:1007E300CFCFDEA3BA00CEC2B6C8CFC2CFDEA3BA84
:1007F30000CAAAB6C8C9CFCFDEA3BA00CAAAB6C870
:07080300CFC2CFDEA3BA0053
:100E1A00015200015B00015500015600025000001A
:1008BF007BFF7A077933120DCB7BFF7A07796712AB
:1008CF000DCB7BFF7A07796A120DCB7BFF7A077905
:1008DF0067120DCB7BFF7A07798F120DCB7BFF7AD7
:1008EF00077967120DCB7BFF7A0779A5120DCB7BAA
:1008FF00FF7A077967120DCB7BFF7A0779B7120D55
:10090F00CB7BFF7A077967120DCB7BFF7A0779B81C
:10091F00120DCB7B007A00793F120DCB7BFF7A074C
:10092F0079C1120DCB7B007A007937120DCB7BFF8B
:10093F007A0779CA120DCB7BFF7A077967120DCB35
:10094F007BFF7A0779B7120DCB7F147E00020ECA98
:100F7D00758901758CFC758A18D2A9D2AFD28C22D5
:10000E00120F7D120D177BFF7A0779CCE4FDFF12DC
:10001E000B6D7BFF7A0779D77D01E4FF120B6D1212
:10002E000FCA120CDE1203F78F5A1202B4E5546493
:10003E000D455360030201EC120D17120AFDE55433
:10004E00640D455360030201EC12080A1203F78F88
:10005E005A7F647E00120ECA120C5BE52F24D0FF6D
:10006E00E434FFFE7C007D0A120BD7E53024D0FD70
:10007E00EC34FFCD2FF54CED3EF54BE52B24D0FFA8
:10008E00E434FFFE7D0A120BD7E52C24D0FDEC34B0
:10009E00FFCD2FF54AED3EF549E53B24D0FFE43484
:1000AE00FFFE7D0A120BD7E53C24D0FDEC34FFCDCC
:1000BE002FF546ED3EF545E53324D0FFE434FFFE43
:1000CE007D0A120BD7E53424D0FDEC34FFCD2FF58D
:1000DE0044ED3EF543E53F24D0FFE434FFFE7D0AB8
:1000EE00120BD7E54024D0FDEC34FFCD2FF54EEDAD
:1000FE003EF54DE53724D0FFE434FFFE7D0A120BAA
:10010E00D7E53824D0FDEC34FFCD2FF548ED3EF584
:10011E0047C3E54E954CE54D954B500AE54E954A35
:10012E00E54D95495004C2A2802DC3E54E954CE590
:10013E004D954B5022C3E54E954AE54D95494017D6
:10014E00E5489546E5479545500DC3E5489544E588
:10015E004795434002D2A2C3E5489546E5479545EB
:10016E00500AE5489544E54795435004C2A2802DB8
:10017E00C3E54E954CE54D954B5022C3E54E954A41
:10018E00E54D95494017E5489546E5479545500D8F
:10019E00C3E5489544E54795434002D2A27BFF7ADA
:1001AE000779B8120DCB7B007A00793F120DCB7B0D
:1001BE00FF7A0779C1120DCB7B007A007937120DC9
:1001CE00CB7BFF7A0779CA120DCB7BFF7A07796753
:1001DE00120DCBE554640D4553700302004CE554EB
:1001EE00640E45536003020033120FD1E554640EC2
:1001FE00455360030200331203F78F5A1208BF12E1
:10020E000C5B12080AC3E54E954CE54D954B500A12
:10021E00E54E954AE54D95495004C2A2802DC3E5A1
:10022E004E954CE54D954B5022C3E54E954AE54D06
:10023E0095494017E5489546E5479545500DC3E568
:10024E00489544E54795434002D2A2C3E5489546FA
:10025E00E5479545500AE5489544E54795435004D2
:10026E00C2A2802DC3E54E954CE54D954B5022C351
:10027E00E54E954AE54D95494017E5489546E547C3
:10028E009545500DC3E5489544E54795434002D248
:10029E00A27F147E00120ECAE554640E45537003FD
:0602AE000201FA02003318
:03000B00020A796D
:100A7900C0E0C0F0C083C082C0D075D000C000C043
:0D0A890001C002C003C004C005C006C007C4
:100A9600758CFC758A180551E5517002055064B8CD
:100AA6007004E550640B70347BFF7A0779DEFDFF36
:100AB600120B6D7BFF7A0779E97D01E4FF120B6D5E
:100AC6007BFF7A0779F47D02E4FF120B6D7BFF7AD8
:0C0AD6000779FF7D03E4FF120B6DC2A93D
:100AE200D007D006D005D004D003D002D001D00068
:0B0AF200D0D0D082D083D0F0D0E03212
:030E2A00011E01A5
:1003F700E4F50A7590F08590095309F0E50964F072
:1004070070030205147F0A7E00120EA9E50964F045
:10041700700302051485900943090F850990AF9071
:10042700EF120BE9045F77046B7B04777D04837E0F
:10043700048FB7049ABB04A5BD04B0BE04BBD704A0
:10044700C6DB04D1DD04DCDE04E7E704F2EB04FDE0
:10045700ED0508EE00000511750A01755300755486
:1004670001020511750A0275530075540202051140
:10047700750A03755300755403020511750A04754F
:100487005300755404020511750A05755300755418
:10049700058077750A06755300755406806C750AD2
:1004A700077553007554078061750A087553007501
:1004B70054088056750A09755300755409804B75A1
:1004C7000A0A75530075540A8040750A0B75530064
:1004D70075540B8035750A0C75530075540C802ABA
:1004E700750A0D75530075540D801F750A0E7553E7
:1004F7000075540E8014750A0F75530075540F80DC
:0F05070009750A107553007554107590F0AF0AFE
:0105160022C2
:100C0F00EF6003751E01E51E6401702E30B10930CF
:100C1F00B00630B20320B3227F0A7E00120ECAE460
:100C2F00F51E20B1037F012220B0037F022220B2E4
:100C3F00037F032220B3127F042230B10C30B0099E
:0B0C4F0030B20630B303751E017F00B9
:010C5A002277
:100F5200D2B67F02120006C2B67F1E7E00120ECAF1
:070F6200D2B67F1E0200065B
:100D4900E4F512F511C3E511940874809480501AE2
:100D590030B6FD7F08120006E51225E0F51230B61F
:0C0D690002051220B6FD051180DBAF1260
:010D7500225B
:10095F00120F5230B6030209EC30B6FD7F28120099
:10096F0006120D498F08120D498F09120D498F0A72
:10097F00120D498F0B120D498F107F19120006E5CA
:10098F00082509FFE433FE7C00EF250AFFEC3EFE4D
:10099F00EF250BFFEC3EFEEFB51010ECB5060C8506
:1009AF00080C85090D850A0E850B0FE50C75F00AED
:1009BF00842430F515E50C75F00A84E5F02430F544
:1009CF0016751720E50E75F00A842430F519E50E1B
:0D09DF0075F00A84E5F02430F51A751B2030
:0109EC0022E8
:100C5B0012095FE4F54FAF4FC3EF94077480948094
:100C6B005030EF940274809480500A74152FF8E67C
:100C7B00FF74378014D3E54F940374809480400E37
:100C8B007415254FF8E6FF743B254FF8A607054F63
:030C9B0080C422F0
:100E3E00CEC2B6C8A3BA2020204300CAAAB6C8A301
:100E4E00BA2020202500C9CFCFDE0043002500CFD9
:040E5E00C2CFDE0021
:0C0E2D000A2131323334353637383900B1
:10080A007BFF7A0E793EE4FDFF120B6D7BFF7A0EB9
:10081A0079497D01E4FF120B6D7B007A00793FE490
:10082A00FD7F03120B6D7B007A0079377D017F0310
:10083A00120B6D7BFF7A0E79547D02E4FF120B6D69
:10084A007BFF7A0E79597D027F04120B6D7BFF7A4A
:10085A000E795B7D027F07120B6D7B007A00792F80
:10086A007D027F02120B6D7B007A00793B7D027F4D
:10087A0005120B6D7BFF7A0E795D7D03E4FF120B87
:10088A006D7BFF7A0E79597D037F04120B6D7BFF16
:10089A007A0E795B7D037F07120B6D7B007A0079F4
:1008AA002B7D037F02120B6D7B007A0079337D0367
:0508BA007F05020B6D3B
:1002B4001203F78F5AE4F54FFF120C0F8F08EF6407
:1002C400017045C3E54F940274809480502D12034D
:1002D400F78F5A7F0A7E00120EA9E55A60E52420A2
:1002E400F8E6FF742F254FF8A607054FE54F640283
:1002F40070D1742F254FF8762080C87B007A00795E
:100304002FE4FD7F05120B6DE4F54FE508640270E0
:1003140045C3E54F940274809480502D1203F78FE7
:100324005A7F147E00120EA9E55A60E52420F8E6EF
:10033400FF742B254FF8A607054FE54F640270D1D3
:10034400742B254FF8762080C87B007A00792B7DAA
:10035400017F05120B6DE4F54FE50864037045C396
:10036400E54F940274809480502D1203F78F5A7FC6
:10037400147E00120EA9E55A60E52420F8E6FF7405
:100384003B254FF8A607054FE54F640270D1743B37
:10039400254FF8762080C87B007A00793B7D027F68
:1003A40005120B6DE4F54FE50864047045C3E54F91
:1003B400940274809480502D1203F78F5A7F147E18
:1003C40000120EA9E55A60E52420F8E6FF743325EF
:1003D4004FF8A607054FE54F640270D17433254FDB
:1003E400F8762080C87B007A0079337D037F05127C
:0203F4000B6D8F
:0103F60022E4
:10051700E52F24D0FFE434FFFE7C007D0A120BD7C1
:10052700E53024D0FDEC34FFCD2FF54CED3EF54BF7
:10053700E52B24D0FFE434FFFE7D0A120BD7E52C10
:1005470024D0FDEC34FFCD2FF54AED3EF549E53BD0
:1005570024D0FFE434FFFE7D0A120BD7E53C24D0FC
:10056700FDEC34FFCD2FF546ED3EF545E53324D0C0
:10057700FFE434FFFE7D0A120BD7E53424D0FDECEF
:1005870034FFCD2FF544ED3EF543E53F24D0FFE49E
:1005970034FFFE7D0A120BD7E54024D0FDEC34FF73
:1005A700CD2FF54EED3EF54DE53724D0FFE434FF72
:1005B700FE7D0A120BD7E53824D0FDEC34FFCD2F92
:1005C700F548ED3EF547C3E54E954CE54D954B5047
:1005D7000AE54E954AE54D95495004C2A18018C3D6
:1005E700E54E954CE54D954B500DC3E54E954AE5C7
:1005F7004D95494002D2A1C3E5489546E547954543
:10060700500AE5489544E54795435003C2A122C3E4
:10061700E5489546E5479545500DC3E5489544E5BA
:080627004795434002D2A122D5
:040F8D007F017E0062
:0B0F9100EF1FAC0670011E4C70F62232
:090FC100D288D2A8D2AFD2B2222C
:0300030002062FC3
:10062F00C0E0C0D075D000C000C002C003C004C07D
:05063F0005C006C00724
:10064400751300E4FDF51430B2030207207A037B2E
:10065400E820B213EB4A600F120F8DEB1B70011AE6
:10066400EB4A70ED02072020B2030207047A017BF3
:10067400F430B213EB4A600F120F8DEB1B70011AAA
:10068400EB4A70ED0207207D00EDC394047480945E
:1006940080506D751400C3E51494087480948050E0
:1006A4005C7A027B5820B212EB4A600E120F8DEB7B
:1006B4001B70011AEB4A70ED80627A007B1430B231
:1006C400167F0A7E00120F910513D3E51394147458
:1006D40080948040E9804574682DF8C000E6C31317
:1006E400D000F6C3E51394087480948040087468BD
:1006F4002DF8E64480F6751300051480990D808961
:10070400E56BF4656A60157D00EDC3940474809410
:0C07140080500974682DF876000D80ED0F
:10072000D007D006D005D004D003D002D000D0D05E
:03073000D0E032E4
:040E3900026600004D
:100F3A00439850438920758780758DFA858D8BC2B9
:080F4A00ACD2ABD2AFD28E2273
:0E0F9C00C2ACC2998F993099FDC299D2AC2295
:100DA3008B6F8A708971AB6FAA70A971120BBEFF2A
:100DB3006015120F9C7F3212000674012571F571C4
:080DC300E43570F57080DF22B9
:100C9E008B728A738974AB72AA73A974120BBEFF1E
:100CAE006015120F9C7F3212000674012574F574C4
:100CBE00E43573F57380DF7F0A1200067F0D120F85
:100CCE009C7F0A1200067F0A120F9C7F0A02000602
:100DCB008B088A09890AAB08AA09A90A120BBEFF6C
:100DDB006015120F9C7F0A1200067401250AF50A92
:080DEB00E43509F50980DF225F
:0100090022D4
:060FD100120F3A020009B4
:070FCA00D2A100D2A0002219
:0D0FAA00D2A000D2A100C2A000C2A100226E
:0A0FB700C2A000D2A100D2A00022C7
:100E8600E4FEEEC39408748094805010EF25E0FFD2
:100E9600C2A10092A000D2A1000E80E6C2A100D29B
:020EA600A000AA
:010EA8002227
:100D7600E4FEC2A100D2A0FDEDC394087480948065
:100D8600501700D2A10030A0047F018002E4FFEEDC
:0C0D960025E04FFEC2A10D80DF00AF067B
:010DA200222E
:0B0E6200120E86120E6DAF05120E86F8
:100E6D00E4FFD2A10030A00DEFC394FF74809480F5
:080E7D0050030F80F0C2A10038
:010E8500224A
:020DF300AD074A
:100DF500120FAA7FA0120E62120FAA7FA1120E86F1
:100E0500120E6D120D768F08120FB77F0A7E001233
:040E15000ECAAF084A
:010E190022B6
:100F0400AC07120FAA7FA0120E86120E6DAF041248
:0C0F14000E62120FB77FE87E03020ECAC7
:100AFD00AD2FE4FF120F047F057E00120EA9AD305D
:100B0D007F01120F047F057E00120EA9AD2B7F020F
:100B1D00120F047F057E00120EA9AD2C7F03120F5C
:100B2D00047F057E00120EA9AD3B7F04120F047FDA
:100B3D00057E00120EA9AD3C7F05120F047F057EC8
:100B4D0000120EA9AD337F06120F047F057E001231
:100B5D000EA9AD347F07120F047F057E00020EA98A
:100CDE00E4FF120DF38F2F7F01120DF38F307F0281
:100CEE00120DF38F2B7F03120DF38F2C7F04120D39
:100CFE00F38F3B7F05120DF38F3C7F06120DF38FA2
:090D0E00337F07120DF38F34222C
:1009F90002000EE493A3F8E493A34003F68001F206
:100A090008DFF48029E493A3F85407240CC8C333FE
:100A1900C4540F4420C8834004F456800146F6DFCD
:100A2900E4800B0102040810204080900E1AE47E35
:100A3900019360BCA3FF543F30E509541FFEE493C2
:100A4900A360010ECF54C025E060A840B8E493A389
:100A5900FAE493A3F8E493A3C8C582C8CAC583CAB4
:100A6900F0A3C8C582C8CAC583CADFE9DEE780BE6C
:010E3D0000B4
:100BBE00BB010689828A83E0225002E722BBFE0235
:090BCE00E32289828A83E4932268
:100BD700EF8DF0A4A8F0CF8CF0A428CE8DF0A42E32
:020BE700FE22EC
:100BE900D083D082F8E4937012740193700DA3A39B
:100BF90093F8740193F5828883E4737402936860AF
:060C0900EFA3A3A380DFAE
:00000001FF
